{
  "address": "0xd666720a69d29781784E53Fcd5524a7DA2Bce9d2",
  "abi": [
    {
      "inputs": [
        {
          "internalType": "uint256",
          "name": "_lockTime",
          "type": "uint256"
        },
        {
          "internalType": "address",
          "name": "_dateFeedsAddr",
          "type": "address"
        }
      ],
      "stateMutability": "nonpayable",
      "type": "constructor"
    },
    {
      "anonymous": false,
      "inputs": [
        {
          "indexed": false,
          "internalType": "address",
          "name": "",
          "type": "address"
        },
        {
          "indexed": false,
          "internalType": "uint256",
          "name": "",
          "type": "uint256"
        }
      ],
      "name": "getEthToFunderEvent",
      "type": "event"
    },
    {
      "anonymous": false,
      "inputs": [
        {
          "indexed": false,
          "internalType": "uint256",
          "name": "",
          "type": "uint256"
        }
      ],
      "name": "getEthtoOwnerEvent",
      "type": "event"
    },
    {
      "inputs": [
        {
          "internalType": "address",
          "name": "funder",
          "type": "address"
        },
        {
          "internalType": "uint256",
          "name": "_amount",
          "type": "uint256"
        }
      ],
      "name": "adjustFundersMapping",
      "outputs": [],
      "stateMutability": "nonpayable",
      "type": "function"
    },
    {
      "inputs": [],
      "name": "dateFeedsAddr",
      "outputs": [
        {
          "internalType": "contract AggregatorV3Interface",
          "name": "",
          "type": "address"
        }
      ],
      "stateMutability": "view",
      "type": "function"
    },
    {
      "inputs": [],
      "name": "fund",
      "outputs": [],
      "stateMutability": "payable",
      "type": "function"
    },
    {
      "inputs": [
        {
          "internalType": "address",
          "name": "",
          "type": "address"
        }
      ],
      "name": "fundersMapping",
      "outputs": [
        {
          "internalType": "uint256",
          "name": "",
          "type": "uint256"
        }
      ],
      "stateMutability": "view",
      "type": "function"
    },
    {
      "inputs": [],
      "name": "getChainlinkDataFeedLatestAnswer",
      "outputs": [
        {
          "internalType": "int256",
          "name": "",
          "type": "int256"
        }
      ],
      "stateMutability": "view",
      "type": "function"
    },
    {
      "inputs": [],
      "name": "getEthToFunder",
      "outputs": [],
      "stateMutability": "nonpayable",
      "type": "function"
    },
    {
      "inputs": [],
      "name": "getEthToOwner",
      "outputs": [],
      "stateMutability": "nonpayable",
      "type": "function"
    },
    {
      "inputs": [],
      "name": "getEthToOwnerSucess",
      "outputs": [
        {
          "internalType": "bool",
          "name": "",
          "type": "bool"
        }
      ],
      "stateMutability": "view",
      "type": "function"
    },
    {
      "inputs": [],
      "name": "owner",
      "outputs": [
        {
          "internalType": "address",
          "name": "",
          "type": "address"
        }
      ],
      "stateMutability": "view",
      "type": "function"
    },
    {
      "inputs": [
        {
          "internalType": "address",
          "name": "_fundMeTokenAddr",
          "type": "address"
        }
      ],
      "name": "setFundMeTokenAddr",
      "outputs": [],
      "stateMutability": "nonpayable",
      "type": "function"
    },
    {
      "inputs": [
        {
          "internalType": "address",
          "name": "newOwner",
          "type": "address"
        }
      ],
      "name": "tranferOwnership",
      "outputs": [],
      "stateMutability": "nonpayable",
      "type": "function"
    }
  ],
  "transactionHash": "0x612a39963ecff5004de57073b7d5e8bc8f424ead04596cb100dea19e1346cda0",
  "args": [
    180,
    "0x694AA1769357215DE4FAC081bf1f309aDC325306"
  ],
  "numDeployments": 3,
  "solcInputHash": "aef93427496e34ba18be7e60810e551d",
  "bytecode": "0x60806040526000600560146101000a81548160ff02191690831515021790555034801561002b57600080fd5b5060405161170d38038061170d833981810160405281019061004d919061017c565b816001819055504260028190555033600460006101000a81548173ffffffffffffffffffffffffffffffffffffffff021916908373ffffffffffffffffffffffffffffffffffffffff160217905550806000806101000a81548173ffffffffffffffffffffffffffffffffffffffff021916908373ffffffffffffffffffffffffffffffffffffffff16021790555050506101bc565b600080fd5b6000819050919050565b6100fb816100e8565b811461010657600080fd5b50565b600081519050610118816100f2565b92915050565b600073ffffffffffffffffffffffffffffffffffffffff82169050919050565b60006101498261011e565b9050919050565b6101598161013e565b811461016457600080fd5b50565b60008151905061017681610150565b92915050565b60008060408385031215610193576101926100e3565b5b60006101a185828601610109565b92505060206101b285828601610167565b9150509250929050565b611542806101cb6000396000f3fe60806040526004361061009c5760003560e01c8063b60d428811610064578063b60d428814610160578063bea4dfb51461016a578063c743f7d914610195578063c7d5dcef146101ac578063cb4d3e2d146101d7578063efbd8e09146102145761009c565b806331e2bcc2146100a157806372da929b146100ca57806383fc58b4146100e15780638d4986401461010a5780638da5cb5b14610135575b600080fd5b3480156100ad57600080fd5b506100c860048036038101906100c39190610cbe565b61023d565b005b3480156100d657600080fd5b506100df610327565b005b3480156100ed57600080fd5b5061010860048036038101906101039190610cfe565b6105ff565b005b34801561011657600080fd5b5061011f6106d3565b60405161012c9190610d46565b60405180910390f35b34801561014157600080fd5b5061014a6106e6565b6040516101579190610d70565b60405180910390f35b61016861070c565b005b34801561017657600080fd5b5061017f610808565b60405161018c9190610da4565b60405180910390f35b3480156101a157600080fd5b506101aa6108a7565b005b3480156101b857600080fd5b506101c1610ae5565b6040516101ce9190610e1e565b60405180910390f35b3480156101e357600080fd5b506101fe60048036038101906101f99190610cfe565b610b09565b60405161020b9190610e48565b60405180910390f35b34801561022057600080fd5b5061023b60048036038101906102369190610cfe565b610b21565b005b600560009054906101000a900473ffffffffffffffffffffffffffffffffffffffff1673ffffffffffffffffffffffffffffffffffffffff163373ffffffffffffffffffffffffffffffffffffffff16146102cd576040517f08c379a00000000000000000000000000000000000000000000000000000000081526004016102c490610ec0565b60405180910390fd5b80600360008473ffffffffffffffffffffffffffffffffffffffff1673ffffffffffffffffffffffffffffffffffffffff168152602001908152602001600020600082825461031c9190610f0f565b925050819055505050565b6001546002546103379190610f43565b4211610378576040517f08c379a000000000000000000000000000000000000000000000000000000000815260040161036f90610fc3565b60405180910390fd5b68056bc75e2d6310000061038b47610bf5565b11156103cc576040517f08c379a00000000000000000000000000000000000000000000000000000000081526004016103c390611055565b60405180910390fd5b6000600360003373ffffffffffffffffffffffffffffffffffffffff1673ffffffffffffffffffffffffffffffffffffffff168152602001908152602001600020540361044e576040517f08c379a0000000000000000000000000000000000000000000000000000000008152600401610445906110c1565b60405180910390fd5b6000600360003373ffffffffffffffffffffffffffffffffffffffff1673ffffffffffffffffffffffffffffffffffffffff1681526020019081526020016000205490506000600360003373ffffffffffffffffffffffffffffffffffffffff1673ffffffffffffffffffffffffffffffffffffffff1681526020019081526020016000208190555060003373ffffffffffffffffffffffffffffffffffffffff16826040516104fd90611112565b60006040518083038185875af1925050503d806000811461053a576040519150601f19603f3d011682016040523d82523d6000602084013e61053f565b606091505b5050905080610583576040517f08c379a000000000000000000000000000000000000000000000000000000000815260040161057a90611173565b60405180910390fd5b7fdd912f754a8d4deae91d84cd10654d861aad0db497000daf9e6c84ba39beb2d033600360003373ffffffffffffffffffffffffffffffffffffffff1673ffffffffffffffffffffffffffffffffffffffff168152602001908152602001600020546040516105f3929190611193565b60405180910390a15050565b600460009054906101000a900473ffffffffffffffffffffffffffffffffffffffff1673ffffffffffffffffffffffffffffffffffffffff163373ffffffffffffffffffffffffffffffffffffffff161461068f576040517f08c379a000000000000000000000000000000000000000000000000000000000815260040161068690611208565b60405180910390fd5b80600460006101000a81548173ffffffffffffffffffffffffffffffffffffffff021916908373ffffffffffffffffffffffffffffffffffffffff16021790555050565b600560149054906101000a900460ff1681565b600460009054906101000a900473ffffffffffffffffffffffffffffffffffffffff1681565b60015460025461071c9190610f43565b421061075d576040517f08c379a000000000000000000000000000000000000000000000000000000000815260040161075490611274565b60405180910390fd5b670de0b6b3a764000061076f34610bf5565b10156107b0576040517f08c379a00000000000000000000000000000000000000000000000000000000081526004016107a7906112e0565b60405180910390fd5b34600360003373ffffffffffffffffffffffffffffffffffffffff1673ffffffffffffffffffffffffffffffffffffffff16815260200190815260200160002060008282546107ff9190610f43565b92505081905550565b60008060008054906101000a900473ffffffffffffffffffffffffffffffffffffffff1673ffffffffffffffffffffffffffffffffffffffff1663feaf968c6040518163ffffffff1660e01b815260040160a060405180830381865afa158015610876573d6000803e3d6000fd5b505050506040513d601f19601f8201168201806040525081019061089a9190611383565b5050509150508091505090565b600460009054906101000a900473ffffffffffffffffffffffffffffffffffffffff1673ffffffffffffffffffffffffffffffffffffffff163373ffffffffffffffffffffffffffffffffffffffff1614610937576040517f08c379a000000000000000000000000000000000000000000000000000000000815260040161092e90611208565b60405180910390fd5b6001546002546109479190610f43565b4211610988576040517f08c379a000000000000000000000000000000000000000000000000000000000815260040161097f90610fc3565b60405180910390fd5b68056bc75e2d6310000061099b47610bf5565b10156109dc576040517f08c379a00000000000000000000000000000000000000000000000000000000081526004016109d39061144a565b60405180910390fd5b600047905060003373ffffffffffffffffffffffffffffffffffffffff1682604051610a0790611112565b60006040518083038185875af1925050503d8060008114610a44576040519150601f19603f3d011682016040523d82523d6000602084013e610a49565b606091505b50508091505080610a8f576040517f08c379a0000000000000000000000000000000000000000000000000000000008152600401610a8690611173565b60405180910390fd5b6001600560146101000a81548160ff0219169083151502179055507fff0669509ebdead76f5418208b57f22e469f5a29fa6159364921227cf6ea3d6982604051610ad99190610e48565b60405180910390a15050565b60008054906101000a900473ffffffffffffffffffffffffffffffffffffffff1681565b60036020528060005260406000206000915090505481565b600460009054906101000a900473ffffffffffffffffffffffffffffffffffffffff1673ffffffffffffffffffffffffffffffffffffffff163373ffffffffffffffffffffffffffffffffffffffff1614610bb1576040517f08c379a0000000000000000000000000000000000000000000000000000000008152600401610ba890611208565b60405180910390fd5b80600560006101000a81548173ffffffffffffffffffffffffffffffffffffffff021916908373ffffffffffffffffffffffffffffffffffffffff16021790555050565b600080610c00610808565b90506305f5e1008184610c13919061146a565b610c1d91906114db565b915050919050565b600080fd5b600073ffffffffffffffffffffffffffffffffffffffff82169050919050565b6000610c5582610c2a565b9050919050565b610c6581610c4a565b8114610c7057600080fd5b50565b600081359050610c8281610c5c565b92915050565b6000819050919050565b610c9b81610c88565b8114610ca657600080fd5b50565b600081359050610cb881610c92565b92915050565b60008060408385031215610cd557610cd4610c25565b5b6000610ce385828601610c73565b9250506020610cf485828601610ca9565b9150509250929050565b600060208284031215610d1457610d13610c25565b5b6000610d2284828501610c73565b91505092915050565b60008115159050919050565b610d4081610d2b565b82525050565b6000602082019050610d5b6000830184610d37565b92915050565b610d6a81610c4a565b82525050565b6000602082019050610d856000830184610d61565b92915050565b6000819050919050565b610d9e81610d8b565b82525050565b6000602082019050610db96000830184610d95565b92915050565b6000819050919050565b6000610de4610ddf610dda84610c2a565b610dbf565b610c2a565b9050919050565b6000610df682610dc9565b9050919050565b6000610e0882610deb565b9050919050565b610e1881610dfd565b82525050565b6000602082019050610e336000830184610e0f565b92915050565b610e4281610c88565b82525050565b6000602082019050610e5d6000830184610e39565b92915050565b600082825260208201905092915050565b7f796f7520646f6e27742068617665207072656d6973736f6e0000000000000000600082015250565b6000610eaa601883610e63565b9150610eb582610e74565b602082019050919050565b60006020820190508181036000830152610ed981610e9d565b9050919050565b7f4e487b7100000000000000000000000000000000000000000000000000000000600052601160045260246000fd5b6000610f1a82610c88565b9150610f2583610c88565b9250828203905081811115610f3d57610f3c610ee0565b5b92915050565b6000610f4e82610c88565b9150610f5983610c88565b9250828201905080821115610f7157610f70610ee0565b5b92915050565b7f70617961626c65206973206e6f74206f6e2074696d6500000000000000000000600082015250565b6000610fad601683610e63565b9150610fb882610f77565b602082019050919050565b60006020820190508181036000830152610fdc81610fa0565b9050919050565b7f66756e6420656e6f756768206d6f6e6579206f6e207461726765742c706c656160008201527f63652077616974206f776e657220757365000000000000000000000000000000602082015250565b600061103f603183610e63565b915061104a82610fe3565b604082019050919050565b6000602082019050818103600083015261106e81611032565b9050919050565b7f796f75722062616c616e63652069732030000000000000000000000000000000600082015250565b60006110ab601183610e63565b91506110b682611075565b602082019050919050565b600060208201905081810360008301526110da8161109e565b9050919050565b600081905092915050565b50565b60006110fc6000836110e1565b9150611107826110ec565b600082019050919050565b600061111d826110ef565b9150819050919050565b7f5472616e73666572206661696c65642e00000000000000000000000000000000600082015250565b600061115d601083610e63565b915061116882611127565b602082019050919050565b6000602082019050818103600083015261118c81611150565b9050919050565b60006040820190506111a86000830185610d61565b6111b56020830184610e39565b9392505050565b7f796f7520617265206e6f74206f776e6572000000000000000000000000000000600082015250565b60006111f2601183610e63565b91506111fd826111bc565b602082019050919050565b60006020820190508181036000830152611221816111e5565b9050919050565b7f70617961626c65206973206f7574206f662074696d6500000000000000000000600082015250565b600061125e601683610e63565b915061126982611228565b602082019050919050565b6000602082019050818103600083015261128d81611251565b9050919050565b7f73656e64206d6f72652045544800000000000000000000000000000000000000600082015250565b60006112ca600d83610e63565b91506112d582611294565b602082019050919050565b600060208201905081810360008301526112f9816112bd565b9050919050565b600069ffffffffffffffffffff82169050919050565b61131f81611300565b811461132a57600080fd5b50565b60008151905061133c81611316565b92915050565b61134b81610d8b565b811461135657600080fd5b50565b60008151905061136881611342565b92915050565b60008151905061137d81610c92565b92915050565b600080600080600060a0868803121561139f5761139e610c25565b5b60006113ad8882890161132d565b95505060206113be88828901611359565b94505060406113cf8882890161136e565b93505060606113e08882890161136e565b92505060806113f18882890161132d565b9150509295509295909350565b7f6e6f742066756e6420656e6f756768206d6f6e65790000000000000000000000600082015250565b6000611434601583610e63565b915061143f826113fe565b602082019050919050565b6000602082019050818103600083015261146381611427565b9050919050565b600061147582610c88565b915061148083610c88565b925082820261148e81610c88565b915082820484148315176114a5576114a4610ee0565b5b5092915050565b7f4e487b7100000000000000000000000000000000000000000000000000000000600052601260045260246000fd5b60006114e682610c88565b91506114f183610c88565b925082611501576115006114ac565b5b82820490509291505056fea26469706673582212205834d06fb8b0b40fb8e79c5af701a0a965be9d4359926911deb5f7488d02ea8464736f6c634300081c0033",
  "devdoc": {
    "kind": "dev",
    "methods": {},
    "version": 1
  },
  "userdoc": {
    "kind": "user",
    "methods": {},
    "version": 1
  },
  "storageLayout": {
    "storage": [
      {
        "astId": 52,
        "contract": "contracts/FundMe.sol:FundMe",
        "label": "dateFeedsAddr",
        "offset": 0,
        "slot": "0",
        "type": "t_contract(AggregatorV3Interface)45"
      },
      {
        "astId": 54,
        "contract": "contracts/FundMe.sol:FundMe",
        "label": "LOCK_TIME",
        "offset": 0,
        "slot": "1",
        "type": "t_uint256"
      },
      {
        "astId": 56,
        "contract": "contracts/FundMe.sol:FundMe",
        "label": "deployBlockTime",
        "offset": 0,
        "slot": "2",
        "type": "t_uint256"
      },
      {
        "astId": 60,
        "contract": "contracts/FundMe.sol:FundMe",
        "label": "fundersMapping",
        "offset": 0,
        "slot": "3",
        "type": "t_mapping(t_address,t_uint256)"
      },
      {
        "astId": 69,
        "contract": "contracts/FundMe.sol:FundMe",
        "label": "owner",
        "offset": 0,
        "slot": "4",
        "type": "t_address"
      },
      {
        "astId": 78,
        "contract": "contracts/FundMe.sol:FundMe",
        "label": "fundMeTokenAddr",
        "offset": 0,
        "slot": "5",
        "type": "t_address"
      },
      {
        "astId": 81,
        "contract": "contracts/FundMe.sol:FundMe",
        "label": "getEthToOwnerSucess",
        "offset": 20,
        "slot": "5",
        "type": "t_bool"
      }
    ],
    "types": {
      "t_address": {
        "encoding": "inplace",
        "label": "address",
        "numberOfBytes": "20"
      },
      "t_bool": {
        "encoding": "inplace",
        "label": "bool",
        "numberOfBytes": "1"
      },
      "t_contract(AggregatorV3Interface)45": {
        "encoding": "inplace",
        "label": "contract AggregatorV3Interface",
        "numberOfBytes": "20"
      },
      "t_mapping(t_address,t_uint256)": {
        "encoding": "mapping",
        "key": "t_address",
        "label": "mapping(address => uint256)",
        "numberOfBytes": "32",
        "value": "t_uint256"
      },
      "t_uint256": {
        "encoding": "inplace",
        "label": "uint256",
        "numberOfBytes": "32"
      }
    }
  }
}